{
  "contractName": "Ballot",
  "abi": [
    {
      "inputs": [
        {
          "internalType": "bytes32[]",
          "name": "proposalNames",
          "type": "bytes32[]"
        }
      ],
      "payable": false,
      "stateMutability": "nonpayable",
      "type": "constructor"
    },
    {
      "constant": true,
      "inputs": [],
      "name": "chairman",
      "outputs": [
        {
          "internalType": "address",
          "name": "",
          "type": "address"
        }
      ],
      "payable": false,
      "stateMutability": "view",
      "type": "function"
    },
    {
      "constant": true,
      "inputs": [
        {
          "internalType": "uint256",
          "name": "",
          "type": "uint256"
        }
      ],
      "name": "proposals",
      "outputs": [
        {
          "internalType": "bytes32",
          "name": "name",
          "type": "bytes32"
        },
        {
          "internalType": "uint256",
          "name": "voteCount",
          "type": "uint256"
        }
      ],
      "payable": false,
      "stateMutability": "view",
      "type": "function"
    },
    {
      "constant": false,
      "inputs": [
        {
          "internalType": "address",
          "name": "voter",
          "type": "address"
        }
      ],
      "name": "giveRightToVote",
      "outputs": [],
      "payable": false,
      "stateMutability": "nonpayable",
      "type": "function"
    },
    {
      "constant": false,
      "inputs": [
        {
          "internalType": "uint256",
          "name": "proposal",
          "type": "uint256"
        }
      ],
      "name": "vote",
      "outputs": [],
      "payable": false,
      "stateMutability": "nonpayable",
      "type": "function"
    },
    {
      "constant": true,
      "inputs": [],
      "name": "winningProposal",
      "outputs": [
        {
          "internalType": "uint256",
          "name": "winninProposal_",
          "type": "uint256"
        }
      ],
      "payable": false,
      "stateMutability": "view",
      "type": "function"
    },
    {
      "constant": true,
      "inputs": [],
      "name": "winningName",
      "outputs": [
        {
          "internalType": "bytes32",
          "name": "winningName_",
          "type": "bytes32"
        }
      ],
      "payable": false,
      "stateMutability": "view",
      "type": "function"
    }
  ],
  "bytecode": "0x608060405234801561001057600080fd5b506040516108403803806108408339818101604052602081101561003357600080fd5b810190808051604051939291908464010000000082111561005357600080fd5b8382019150602082018581111561006957600080fd5b825186602082028301116401000000008211171561008657600080fd5b8083526020830192505050908051906020019060200280838360005b838110156100bd5780820151818401526020810190506100a2565b5050505090500160405250505033600260006101000a81548173ffffffffffffffffffffffffffffffffffffffff021916908373ffffffffffffffffffffffffffffffffffffffff16021790555060008090505b8151811015610194576000604051806040016040528084848151811061013357fe5b6020026020010151815260200160008152509080600181540180825580915050906001820390600052602060002090600202016000909192909190915060008201518160000155602082015181600101555050508080600101915050610111565b505061069b806101a56000396000f3fe608060405234801561001057600080fd5b50600436106100625760003560e01c80630121b93f14610067578063013cf08b146100955780631f9ff6d7146100de578063609ff1bd146100fc57806387f7b9751461011a5780639e7b8d6114610164575b600080fd5b6100936004803603602081101561007d57600080fd5b81019080803590602001909291905050506101a8565b005b6100c1600480360360208110156100ab57600080fd5b8101908080359060200190929190505050610345565b604051808381526020018281526020019250505060405180910390f35b6100e6610376565b6040518082815260200191505060405180910390f35b6101046103a2565b6040518082815260200191505060405180910390f35b610122610419565b604051808273ffffffffffffffffffffffffffffffffffffffff1673ffffffffffffffffffffffffffffffffffffffff16815260200191505060405180910390f35b6101a66004803603602081101561017a57600080fd5b81019080803573ffffffffffffffffffffffffffffffffffffffff16906020019092919050505061043f565b005b6000600160003373ffffffffffffffffffffffffffffffffffffffff1673ffffffffffffffffffffffffffffffffffffffff1681526020019081526020016000209050600081600201541415610266576040517f08c379a00000000000000000000000000000000000000000000000000000000081526004018080602001828103825260148152602001807f486173206e6f20726967687420746f20766f746500000000000000000000000081525060200191505060405180910390fd5b8060000160009054906101000a900460ff16156102eb576040517f08c379a000000000000000000000000000000000000000000000000000000000815260040180806020018281038252600d8152602001807f416c726561647920766f7465640000000000000000000000000000000000000081525060200191505060405180910390fd5b60018160000160006101000a81548160ff02191690831515021790555081816001018190555080600201546000838154811061032357fe5b9060005260206000209060020201600101600082825401925050819055505050565b6000818154811061035257fe5b90600052602060002090600202016000915090508060000154908060010154905082565b6000806103816103a2565b8154811061038b57fe5b906000526020600020906002020160000154905090565b6000806000905060008090505b6000805490508110156104145781600082815481106103ca57fe5b906000526020600020906002020160010154111561040757600081815481106103ef57fe5b90600052602060002090600202016001015491508092505b80806001019150506103af565b505090565b600260009054906101000a900473ffffffffffffffffffffffffffffffffffffffff1681565b600260009054906101000a900473ffffffffffffffffffffffffffffffffffffffff1673ffffffffffffffffffffffffffffffffffffffff163373ffffffffffffffffffffffffffffffffffffffff16146104e5576040517f08c379a00000000000000000000000000000000000000000000000000000000081526004018080602001828103825260258152602001806106426025913960400191505060405180910390fd5b600160008273ffffffffffffffffffffffffffffffffffffffff1673ffffffffffffffffffffffffffffffffffffffff16815260200190815260200160002060000160009054906101000a900460ff16156105a8576040517f08c379a000000000000000000000000000000000000000000000000000000000815260040180806020018281038252601b8152602001807f54686520766f7465722068617320616c726561647920766f746564000000000081525060200191505060405180910390fd5b6000600160008373ffffffffffffffffffffffffffffffffffffffff1673ffffffffffffffffffffffffffffffffffffffff16815260200190815260200160002060020154146105f757600080fd5b60018060008373ffffffffffffffffffffffffffffffffffffffff1673ffffffffffffffffffffffffffffffffffffffff168152602001908152602001600020600201819055505056fe6f6e6c792063686169726d616e2063616e20676976652061636365737320746f20766f7465a265627a7a72315820a8884bbc31dad2b2ee8dda86cefa14df3a9d794c81b219f7cf8d796342409cec64736f6c63430005100032",
  "source": "pragma solidity >=0.4.25 <0.7.0;\n\n// 1) We want the ability to accept proposal and store them\n  // proposal: their name, number\n\n// 2) Voters and voting ability\n  // keep track of vote\n  // check voters areauthenticated to vote\n\n// 3) chairman\n  // authenticate and deploy contract\n\n\n\ncontract Ballot {\n\n  struct Voter {\n    bool voted;\n    uint vote;\n    uint weight;\n  }\n\n  struct Proposal {\n    // byte => basic unit measurement of information (less gas than string)\n    bytes32 name; // name of each proposal\n    uint voteCount; // number of accumulated vote\n  }\n\n// Voters get address as key and Voter for value\n  Proposal[] public proposals;\n  mapping(address => Voter) voters;\n\n  address public chairman;\n\n  constructor(bytes32[] memory proposalNames) public {\n    // memory defines temporary data location in solidity during runtime only\n    // we garantee spae for it\n\n    chairman = msg.sender;\n\n    // add proposalname to the smart contract upon deployment\n    for(uint i = 0; i < proposalNames.length; i++) {\n      proposals.push(Proposal({\n        name: proposalNames[i],\n        voteCount: 0\n      }));\n    }\n  }\n\n  // Authenticate voters\n  function giveRightToVote(address voter) public {\n    require(msg.sender == chairman, 'only chairman can give access to vote');\n    require(!voters[voter].voted, 'The voter has already voted');\n    \n    // Check ability to vote\n    require(voters[voter].weight == 0);\n\n    voters[voter].weight = 1;\n  }\n\n  // Voting function\n  // focus on each person sending a vote\n  function vote(uint proposal) public {\n    Voter storage sender = voters[msg.sender];\n    require(sender.weight != 0, 'Has no right to vote');\n    require(!sender.voted, 'Already voted');\n    sender.voted = true;\n    sender.vote = proposal;\n\n    proposals[proposal].voteCount += sender.weight;\n  }\n\n  // Functions Showing the results\n\n  // 1. Showing wining proposal by int\n  function winningProposal() public view returns (uint winninProposal_) {\n    uint winningVoteCount = 0;\n    for(uint i = 0; i < proposals.length; i++){\n      if(proposals[i].voteCount > winningVoteCount) {\n        winningVoteCount = proposals[i].voteCount;\n        winninProposal_ = i;\n      }\n    }\n  }\n\n  // 1. Showing winner by name\n  function winningName() public view returns (bytes32 winningName_) {\n   winningName_ =  proposals[winningProposal()].name;\n  }\n\n}",
  "sourcePath": "/Users/salome/Projects/Udemy/Blockchain-basis/Voting-dapp/contracts/Ballot.sol",
  "compiler": {
    "name": "solc",
    "version": "0.5.16+commit.9c3226ce.Emscripten.clang"
  },
  "schemaVersion": "3.4.7",
  "updatedAt": "2022-05-31T22:49:54.745Z",
  "devdoc": {
    "methods": {}
  },
  "userdoc": {
    "methods": {}
  }
}